:020000040000FA
:100000000C9463000C948B000C948B000C94880669
:100010000C9488060C9488060C948B000C948B002E
:100020000C948B000C948B000C948B000C948B0024
:100030000C948B000C948B000C948B000C948B0014
:100040000C94E6050C948B000C9456060C94300628
:100050000C948B000C948B000C948B000C948B00F4
:100060000C948B000C948B000000000024002700EF
:100070002A0000000008000201000003040700003D
:1000800000000000000000000000230026002900FE
:1000900000000000250028002B00040404040404D0
:1000A0000404020202020202030303030303010227
:1000B00004081020408001020408102001020408F6
:1000C00010200007000C11241FBECFEFD8E0DEBFC8
:1000D000CDBF22E0A4E4B1E001C01D92AF3CB20765
:1000E000E1F711E0A0E0B1E0E0E7FDE102C005903A
:1000F0000D92A434B107D9F710E0C2E6D0E004C0F5
:100100002197FE010E94AA0CC136D107C9F70E94AF
:1001100095080C94AB0E0C940000833081F028F409
:10012000813099F08230A9F008958730A9F08830A5
:10013000C9F08430B1F4809180008F7D03C080913C
:1001400080008F7780938000089584B58F7784BD79
:10015000089584B58F7DFBCF8091B0008F77809319
:10016000B00008958091B0008F7DF9CF1F93CF9399
:10017000DF93282F30E0F901EE58FF4F8491F90109
:10018000E255FF4FD491F901E656FF4FC491CC23BD
:10019000A9F0162F81110E948D00EC2FF0E0EE0FD8
:1001A000FF1FE057FF4FA591B4918FB7F894EC91E2
:1001B000111108C0D095DE23DC938FBFDF91CF9162
:1001C0001F910895DE2BF8CFCF93DF9390E0FC01D1
:1001D000E255FF4F249186569F4FFC01849188235E
:1001E000C9F090E0880F991FFC01E859FF4FA591D5
:1001F000B491FC01E057FF4FC591D49161110DC03E
:100200009FB7F8948C91209582238C938881282322
:1002100028839FBFDF91CF910895623051F49FB73B
:10022000F8943C91822F809583238C93E8812E2B28
:10023000EFCF8FB7F894EC912E2B2C938FBFEACF92
:100240003FB7F8948091B1019091B201A091B301B0
:10025000B091B40126B5A89B05C02F3F19F00196B7
:10026000A11DB11D3FBFBA2FA92F982F8827BC0110
:10027000CD01620F711D811D911D42E0660F771F38
:10028000881F991F4A95D1F70895AF92BF92CF92D8
:10029000DF92EF92FF920F931F93CF93DF936C0146
:1002A0007B018B01040F151FEB015E01AE18BF0827
:1002B000C017D10759F06991D601ED91FC910190D9
:1002C000F081E02DC6010995892B79F7C501DF91F1
:1002D000CF911F910F91FF90EF90DF90CF90BF9043
:1002E000AF900895FC01538D448D252F30E0842F6D
:1002F00090E0821B930B541710F0CF96089501974E
:100300000895FC01918D828D981761F0A28DAE0F3A
:10031000BF2FB11D5D968C91928D9F5F9F73928FC1
:1003200090E008958FEF9FEF0895FC01918D828DED
:10033000981731F0828DE80FF11D858D90E00895BA
:100340008FEF9FEF0895FC01918D228D892F90E012
:10035000805C9F4F821B91098F739927089589EBC9
:1003600091E00E94A30121E0892B09F420E0822F73
:10037000089580E090E0892B29F00E94AF0181115F
:100380000C9400000895FC01A48DA80FB92FB11D95
:10039000A35ABF4F2C91848D90E001968F739927BB
:1003A000848FA689B7892C93A089B1898C91837099
:1003B00080648C93938D848D981306C00288F38992
:1003C000E02D80818F7D80830895EF92FF920F93BF
:1003D0001F93CF93DF93EC0181E0888F9B8D8C8DF1
:1003E00098131AC0E889F989808185FF15C09FB7E5
:1003F000F894EE89FF896083E889F98980818370A8
:10040000806480839FBF81E090E0DF91CF911F9156
:100410000F91FF90EF900895F62E0B8D10E00F5F77
:100420001F4F0F731127E02E8C8D8E110CC00FB64D
:1004300007FCFACFE889F989808185FFF5CFCE01E5
:100440000E94C301F1CFEB8DEC0FFD2FF11DE35A9C
:10045000FF4FF0829FB7F8940B8FEA89FB89808168
:100460008062CFCFCF93DF93EC01888D8823B9F0E2
:10047000AA89BB89E889F9898C9185FD03C08081AF
:1004800086FD0DC00FB607FCF7CF8C9185FFF2CF2C
:10049000808185FFEDCFCE010E94C301E9CFDF91BE
:1004A000CF9108952091860130918701281739074F
:1004B00071F49091840180918501981741F0E09149
:1004C0008401F0E0EC5BFE4F808190E008958FEFB7
:1004D0009FEF08950895EF92FF920F931F93CF938C
:1004E000DF93DC015C96ED90FC905D97E114F104E4
:1004F00079F481E090E013969C938E93129790E0AC
:1005000080E0DF91CF911F910F91FF90EF900895C0
:100510005196ED91FC91529750968C915097982F4F
:1005200090950FB75E962C915E97122F127021FD59
:100530006095F8942081112319F1282B2083E7017D
:100540002197F1F728E0462F50E0308160FF1AC074
:10055000382B3083E7012197F1F7BA01759567953C
:10056000215089F7112381F08081892380830FBF77
:100570005C968D919C910197F1F781E090E0C1CF5D
:100580002923DCCF3923E5CF9081892BEFCF209130
:100590008601309187012817390761F48091850120
:1005A0002091840190E0805C9F4F821B91098F73A2
:1005B0009927089590E080E0089520918601309178
:1005C000870128173907B9F490918401809185013A
:1005D000981789F0E0918401F0E0EC5BFE4F808198
:1005E0002091840130E02F5F3F4F2F7333272093FA
:1005F000840190E008958FEF9FEF08952FB7F8944E
:100600008091B5019091B601A091B701B091B80168
:100610002FBF8093A2029093A302A093A402B09351
:10062000A5028AE992E00E94DD0297FF26C02FB75B
:10063000F8948091B5019091B601A091B701B09165
:10064000B8012FBF4091A2025091A3026091A40271
:100650007091A502841B950BA60BB70B40919E02CF
:1006600050919F026091A0027091A102841795079A
:10067000A607B707B0F28FEF9FEF089590E080E0F4
:100680000895EF92FF921F93CF93DF93EC0188813F
:100690008617F1F0E62E062E000CFF0889818E15D4
:1006A0001F04E9F0E4F0688310E08A85181780F4ED
:1006B000B701012E02C0759567950A94E2F7617043
:1006C000FE01E10FF11D82810E94B6001F5FEDCF98
:1006D00080E0DF91CF911F91FF90EF9008958DEF13
:1006E000F8CF0F931F93CF93DF93109164020FEF16
:1006F000113089F4C82F86E592E00E944103082F4B
:10070000811109C08091650290916602009749F0BD
:10071000019709F457C0802FDF91CF911F910F915E
:100720000895D091630261E08D2F0E94E400C11111
:1007300005C060E08D2F0E94B600EDCFED2FF0E0F8
:10074000EE58FF4FE491E33009F148F4E130C9F08D
:10075000E23079F784B5806284BD18BDDCCFE73024
:1007600009F1E83039F1E43021F7809180008062AE
:100770008093800081E090E090938B0080938A00CA
:10078000CACF84B5806884BDE7BDC5CF80918000A5
:1007900080688093800081E090E09093890080934E
:1007A0008800B9CF8091B00080688093B00010932A
:1007B000B300B1CF8091B00080628093B0001093FD
:1007C000B400A9CF6C2F80916302B5CFCF93DF9394
:1007D000EC010E944103882331F0082E000C990B94
:1007E000DF91CF9108958F859889009729F001971F
:1007F000C9F08EEF9FEFF4CF8D858E3008F08E50CC
:100800008770806480937C0080917A0080648093FC
:100810007A0080917A0086FDFCCF809178009091DB
:100820007900DECF2D8530E0F901EE58FF4F84913D
:10083000F901E255FF4FD491F901E656FF4FC491FB
:10084000CC23A1F081110E948D00EC2FF0E0EE0F7F
:10085000FF1FEA57FF4FA591B491EC91ED2331E0D2
:1008600020E009F430E0832F922FBACF90E080E0AF
:10087000B7CF4F925F926F927F928F929F92AF927B
:10088000BF92CF92DF92EF92FF920F931F93CF937D
:10089000DF93CDB7DEB762970FB6F894DEBF0FBE19
:1008A000CDBF4C01742E652E2B01AA86BB86CC864B
:1008B000DD86EE86FF86088B198B2A8B89E0FE0188
:1008C0003A96DE01119601900D928A95E1F78FEF2D
:1008D000F401808399E0FE013196D40112960190D3
:1008E0000D929A95E1F791E0F401938784878587CB
:1008F000968781E090E0908B878784019801281982
:100900003909F401828590E00F5F1F4F28173907DE
:1009100034F461E0F80181810E94E400EFCF91E0BE
:1009200001C0990F8A95EAF79183858587FD0DC0EF
:10093000871559F09685913019F460E00E94B60051
:1009400060E0F40185850E94E400F4017586668606
:100950004786508A611004C060E0872D0E94B6006F
:10096000F4016685858562960FB6F894DEBF0FBEEA
:10097000CDBFDF91CF911F910F91FF90EF90DF904E
:10098000CF90BF90AF909F908F907F906F905F902F
:100990004F900C94E4000F931F93CF93DF93EC01DF
:1009A00088819981009759F02A813B812617370762
:1009B00030F081E0DF91CF911F910F9108958B016D
:1009C0006F5F7F4F0E94D50D009759F09983888300
:1009D0001B830A832C813D81232B59F7FC01108254
:1009E000E8CF80E0E7CFEF92FF920F931F93CF9372
:1009F000DF936115710541F480E0DF91CF911F9184
:100A00000F91FF90EF90089541155105B1F07B01D2
:100A1000EC010C811D81040F151FB8010E94CB044D
:100A2000882351F3288139818C819D81B701820F00
:100A3000931F0E94A40E1D830C8381E0DECFCF9311
:100A4000DF93EC0188819981009711F00E944C0D91
:100A5000198218821D821C821B821A82DF91CF911B
:100A60000895CF93DF93EC01FB0101900020E9F79B
:100A70003197AF01461B570B0E94F304811103C04D
:100A8000CE010E941F05CE01DF91CF910895CF9333
:100A9000DF93EC01FB0144815581608171810E94EB
:100AA000F304811103C0CE010E941F05CE01DF9126
:100AB000CF910895EF92FF920F931F93CF93DF93FF
:100AC000EC017B018A01BA010E94CB0481110BC0A9
:100AD000CE010E941F05CE01DF91CF911F910F9192
:100AE000FF90EF9008951D830C83B7018881998151
:100AF0000E94A40EF0CFFB01DC0111961C921E9205
:100B000013961C921E92129715961C921E92149781
:100B10008617970749F0608171816115710521F091
:100B2000448155810C945A050895FC01118210826C
:100B30001382128215821482FB0101900020E9F7D2
:100B40003197AF01461B570B0C945A05FC0180816D
:100B50009181009711F00C944C0D0895EF92FF9243
:100B60000F931F93CF93DF93CDB7DEB762970FB686
:100B7000F894DEBF0FBECDBF8C01CB01F80111820E
:100B80001082138212821582148250E09E012F5F20
:100B90003F4F7901B9010E94270CF7010190002015
:100BA000E9F73197AF014E195F09B701C8010E94FB
:100BB0005A0562960FB6F894DEBF0FBECDBFDF9127
:100BC000CF911F910F91FF90EF9008951F920F9278
:100BD0000FB60F9211242F933F938F939F93AF9350
:100BE000BF938091B5019091B601A091B701B091EA
:100BF000B8013091B00123E0230F2D3758F501964D
:100C0000A11DB11D2093B0018093B5019093B60151
:100C1000A093B701B093B8018091B1019091B20156
:100C2000A091B301B091B4010196A11DB11D8093B3
:100C3000B1019093B201A093B301B093B401BF91FD
:100C4000AF919F918F913F912F910F900FBE0F9079
:100C50001F90189526E8230F0296A11DB11DD2CF33
:100C60001F920F920FB60F9211242F933F934F9321
:100C70005F936F937F938F939F93AF93BF93EF9304
:100C8000FF9389EB91E00E94C301FF91EF91BF9127
:100C9000AF919F918F917F916F915F914F913F9114
:100CA0002F910F900FBE0F901F9018951F920F92CB
:100CB0000FB60F9211242F938F939F93EF93FF936F
:100CC000E091C901F091CA018081E091CF01F091DA
:100CD000D00182FD1BC090818091D2018F5F8F7304
:100CE0002091D301821741F0E091D201F0E0E75466
:100CF000FE4F958F8093D201FF91EF919F918F913D
:100D00002F910F900FBE0F901F9018958081F4CFF8
:100D10001F920F920FB60F9211242F933F934F9370
:100D20005F936F937F938F939F93AF93BF93EF9353
:100D3000FF93E0918601F0918701309749F0A685F5
:100D4000B7858585968D91FF14C09C918923A1F468
:100D5000FF91EF91BF91AF919F918F917F916F9193
:100D60005F914F913F912F910F900FBE0F901F9069
:100D700018959C91892361F7A389B4899C918589F1
:100D8000809589238C93868997890197F1F7608DE7
:100D9000718DA685B785558538E020E0CB01019798
:100DA000F1F7822F90E095958795282F4C91452358
:100DB00009F02068315091F7868D81FD2095809152
:100DC000850190E001968F7399273091840138173F
:100DD00099F0A0918501B0E0AC5BBE4F2C9380935D
:100DE0008501828D938D0197F1F7A389B4898C9148
:100DF0009589892B8C93ACCF868D8160868FF1CFBE
:100E00008F929F92AF92BF92CF92DF92EF92FF921A
:100E10000F931F93CF93DF93CDB7DEB729970FB60C
:100E2000F894DEBF0FBECDBF1092BC011092BB0183
:100E300098EE892E93E0992EA12CB12C8092BD01C1
:100E40009092BE01A092BF01B092C0018AE091E0F1
:100E50009093BA018093B90185EC90E09093C6011C
:100E60008093C50184EC90E09093C8018093C70102
:100E700080EC90E09093CA018093C90181EC90E0EE
:100E80009093CC018093CB0182EC90E09093CE01C3
:100E90008093CD0186EC90E09093D0018093CF01B8
:100EA0001092D2011092D3011092D4011092D50168
:100EB0006AE271E085EC92E00E94950562E471E0DF
:100EC0008FEB92E00E94950562E471E089EB92E07D
:100ED0000E94950510929D0210929C0280929E02A3
:100EE00090929F02A092A002B092A1028CE191E0A8
:100EF00090939B0280939A021092B1021092B002DA
:100F00001092B3021092B2021092B5021092B40283
:100F10001092B7021092B6026091B8026E7F6D7F98
:100F20006093B8026695617081E068270E94B60000
:100F300061E081E00E94E400EFEAF0E0E491E093F8
:100F4000AA02EBE9F0E0E491F0E0EE0FFF1FE057BA
:100F5000FF4F859194919093AC028093AB0260E037
:100F600080E00E94E4008091B80281FD04C061E04D
:100F700080E00E94B6001092A602EEEAF0E0E49152
:100F8000E093A702EAE9F0E0E491F0E0EE0FFF1F42
:100F9000EA57FF4F859194919093A9028093A802FC
:100FA00089E089838AE08A838BE08B838CE08C8361
:100FB0008FEF8D838E838F838887FE01319690E03B
:100FC00080E04F01219127FF94C08987A980BA80D2
:100FD000CB80DC80ED80FE800F81188529854EE076
:100FE00050E060E070E089E892E00E94390489E016
:100FF00089838AE08A838BE08B838CE08C838FEFFC
:101000008D838E838F838887F40190E080E0219127
:1010100027FF76C08987A980BA80CB80DC80ED80ED
:10102000FE800F811885298547E052E061E070E07D
:1010300088E792E00E94390489E089838AE08A8304
:101040008BE08B838CE08C838FEF8D838E838F83FB
:101050008887F40190E080E0219127FF58C08987BC
:10106000A980BA80CB80DC80ED80FE800F8118855E
:10107000298546E052E061E070E087E692E00E9458
:10108000390489E089838AE08A838BE08B838CE052
:101090008C838FEF8D838E838F838887F40190E01C
:1010A00080E0219127FF3AC08987A980BA80CB8050
:1010B000DC80ED80FE800F811885298548E051E0B5
:1010C00061E070E086E592E00E94390429960FB64F
:1010D000F894DEBF0FBECDBFDF91CF911F910F916E
:1010E000FF90EF90DF90CF90BF90AF909F908F9048
:1010F000089501968830910509F064CF88E065CFA6
:1011000001968830910509F082CF88E083CF01965F
:101110008830910509F0A0CF88E0A1CF01968830F2
:10112000910509F0BECF88E0BFCFCF93DF93CDB755
:10113000DEB7C754D1090FB6F894DEBF0FBECDBFDE
:10114000789484B5826084BD84B5816084BD85B5A2
:10115000826085BD85B5816085BD80916E008160AE
:1011600080936E0010928100809181008260809354
:101170008100809181008160809381008091800056
:101180008160809380008091B10084608093B10081
:101190008091B00081608093B00080917A0084607B
:1011A00080937A0080917A00826080937A008091A7
:1011B0007A00816080937A0080917A0080688093C1
:1011C0007A001092C100E091C901F091CA0182E059
:1011D0008083E091C501F091C6011082E091C701C2
:1011E000F091C8018FEC80831092D101E091CD0184
:1011F000F091CE0186E08083E091CB01F091CC01AB
:10120000808180618083E091CB01F091CC0180816D
:1012100088608083E091CB01F091CC01808180686F
:101220008083E091CB01F091CC0180818F7D808320
:101230001092B5021092B4021092B3021092B20250
:101240001092B1021092B0028DE991E09093B70232
:101250008093B6029091A602963108F047C02DEB1C
:1012600030E03093B1022093B0022BE931E03093AB
:10127000B3022093B2022CE231E03093B502209306
:10128000B4022091680084E0983048F031E09E304C
:1012900008F430E081E001C0880F3A95EAF7822B2C
:1012A000809368002DE630E0983050F02BE630E077
:1012B0009E3030F02CE630E0963110F030E020E047
:1012C0003093AE022093AD02292F30E0983008F021
:1012D00007C181E001C0880F9A95EAF78093AF02B9
:1012E0008091B6029091B7020197F1F78091B40214
:1012F0009091B502892B49F1E0918601F091870127
:1013000022E0EA39F20709F1309739F0A389B4896C
:101310009C918589809589238C938091B8028E7FDA
:101320008093B80210928501109284018AE992E0BC
:101330009093870180938601E091AD02F091AE0217
:1013400080819091AF02892B808361E082E00E94CE
:10135000E40060E082E00E94B6008E010F5F1F4F44
:10136000EE24E39480EA91E022969FAF8EAF22971D
:10137000A8E8B1E02896BFAFAEAF2897E8E9F1E062
:101380002496FFAFEEAF249780E991E026969FAFB9
:101390008EAF26971C01FFAFEEAFE8E8F1E0FDAF9E
:1013A000ECAF20EAC22E21E0D22EF12C6F2D89E87D
:1013B00092E00E94E6033601D6018D939C93895CEE
:1013C00091098B32914008F098C081E090E0F601DD
:1013D000918380836F2D88E792E00E94E6032C01C1
:1013E00081E04114510409F480E0EEADFFAD81933A
:1013F000FFAFEEAF6F2D87E692E00E94E60321E09B
:10140000009709F420E0D1012D931D01B2E0CB0E2D
:10141000D11CF30120813181232B09F472C04528AE
:1014200019F0892B09F46DC0ACADBDADEC926F2DF8
:1014300081E00E9471030E9420014B015C0198EE43
:10144000492E93E0592E612C712C0E9420016819BD
:1014500079098A099B09683E734081059105A8F3C3
:10146000F1E04F1A51086108710828EE820E23E05E
:10147000921EA11CB11C411451046104710429F78E
:10148000F394ECADFDAD3196FDAFECAFF8E0FF129B
:101490008DCF8AE992E00E94C702181619060CF057
:1014A0009BC11FAA1EAA19AE18AE1BAE1AAE50E001
:1014B00040E062E471E0CE01C6960E945A050E94A7
:1014C000FE0297FD24C08A30910509F189831A82B2
:1014D00041E050E0B801CE01C6960E94F304EFCF80
:1014E0009E3040F42850310981E001C0880F2A95D0
:1014F000EAF7F4CE2E503109F7CFD6011D921C9297
:1015000069CFECADFDAD10826F2D80E092CF6EA85B
:101510007FA86114710431F0CAACDBAC5301C11473
:10152000D10439F565EC72E0C8010E947B056FE2D9
:1015300071E0C8010E9431052AAD3BADDC01149673
:101540004D915C9115972417350709F05CC0EEA901
:10155000FFA96D917C91309709F444C06115710524
:1015600009F047C1232B09F448C1808190E047C0AE
:10157000540145012FEF821A920AD5018C91082E51
:10158000000C990B0E94570C892B91F7B1E0CB1AF4
:10159000D108C60CD71CF6018081082E000C990BCF
:1015A0000E94570C892B39F0CA14DB0420F0F1E0BB
:1015B000CF1AD108F0CF2FEFC21AD20AA6014A19CA
:1015C0005B095BAF4AAF6A147B0420F4B501C30129
:1015D0000E94920EEEA9FFA98AAD9BADE80FF91FFC
:1015E0001082A0CF6115710509F407C1232B09F4FE
:1015F00004C1FB01808190E0919581959109FF24C0
:10160000F394892B09F0F12CC8010E94A605FF2054
:1016100009F4DEC061E082E00E94B60065EC72E091
:10162000C8010E947B0569E371E0C8010E94310591
:10163000BC01CE01C0960E947B05C8010E94A60590
:10164000CC24C394D12C2896AEADBFAD28976D9114
:101650002896BFAFAEAF289770E042E0CE01429629
:101660000E94AE052696EEADFFAD269761912696B7
:10167000FFAFEEAF269770E042E0CE0148960E94A1
:10168000AE052496AEADBFAD24976D912496BFAF45
:10169000AEAF249770E042E0CE014E960E94AE05B8
:1016A0002296EEADFFAD2297819191912296FFAFE8
:1016B000EEAF22971DA21CA21FA21EA219A618A659
:1016C00042E0B8010E943D0CF80101900020E9F7CA
:1016D0003197AF01401B510BB801CE0184960E9497
:1016E0005A054AE0B601CE018A960E94AE05BE01B7
:1016F000665D7F4FC8010E947B056CE371E0C80105
:101700000E943105BE016C5D7F4F0E9447056CE36E
:1017100071E00E943105BE01625E7F4F0E94470565
:101720006CE371E00E943105BE01685E7F4F0E944C
:1017300047056CE371E00E943105BE016E5E7F4F8C
:101740000E9447056EE371E00E943105DC011496AA
:101750004D915C9115976D917C91CE01C0960E9440
:10176000F304C8010E94A605CE018A960E94A60530
:10177000CE0184960E94A605CE014E960E94A60533
:10178000CE0148960E94A605CE0142960E94A6056B
:10179000BFEFCB1ADB0AE9E0CE16D10409F053CF34
:1017A0004CA95DA968A979A98AE992E00E9445013E
:1017B00042E050E060E471E08AE992E00E94450175
:1017C00060E082E00E94B600CE01C0960E94A605AD
:1017D000CE01C6960E94A60580E090E0892B09F410
:1017E000C1CD0E94AF01882309F4BACD0E94000048
:1017F000B7CDCF010E949B0E02CFFF24F39404CFFC
:101800008CE191E090939B0280939A0280918601F3
:10181000909187018A59924071F4E091AD02F09164
:10182000AE0290818091AF028095892380831092CF
:1018300087011092860189EB92E00E94A6058FEB4A
:1018400092E00E94A60585EC92E00C94A605453234
:10185000510520F4423010F00C94320CFB01108240
:10186000CB010895BB274A3031F4992322F4BDE21D
:10187000909581959F4F0C943E0CBB27FB015527FB
:10188000AA27880F991FAA1FA41710F0A41B8395DD
:101890005051B9F7A05DAA3308F0A95DA193009754
:1018A00079F7B111B1931192CB010C94600C9111A5
:1018B0000C94700C803219F089508550C8F7089547
:1018C000DC01FC01672F71917723E1F7329704C0A7
:1018D0007C916D9370836291AE17BF07C8F3089532
:1018E0009927882708952F923F924F925F926F9287
:1018F0007F928F929F92AF92BF92CF92DF92EF92A0
:10190000FF920F931F93CF93DF93CDB7DEB7CA1B20
:10191000DB0B0FB6F894DEBF0FBECDBF09942A884B
:10192000398848885F846E847D848C849B84AA84F3
:10193000B984C884DF80EE80FD800C811B81AA8180
:10194000B981CE0FD11D0FB6F894DEBF0FBECDBF4B
:10195000ED010895EE0FFF1F0590F491E02D09941D
:101960000F931F93CF93DF938230910510F482E0A1
:1019700090E0E091CD02F091CE0230E020E0B0E0C6
:10198000A0E0309799F42115310509F44AC0281BCD
:10199000390B24303105D8F58A819B816115710599
:1019A00089F1FB0193838283FE0111C04081518143
:1019B0000281138148175907E0F04817590799F435
:1019C000109761F012960C93129713961C9332960F
:1019D000CF01DF91CF911F910F9108950093CD0218
:1019E0001093CE02F4CF2115310551F04217530761
:1019F00038F0A901DB019A01BD01DF01F801C1CF77
:101A0000EF01F9CF9093CE028093CD02CDCFFE01AE
:101A1000E20FF31F81939193225031093983288378
:101A2000D7CF2091CB023091CC02232B41F42091CF
:101A30000201309103013093CC022093CB0220911C
:101A40000001309101012115310541F42DB73EB758
:101A50004091040150910501241B350BE091CB020C
:101A6000F091CC02E217F307A0F42E1B3F0B2817CE
:101A7000390778F0AC014E5F5F4F2417350748F007
:101A80004E0F5F1F5093CC024093CB0281939193F2
:101A90009FCFF0E0E0E09CCFCF93DF930097E9F099
:101AA000FC01329713821282A091CD02B091CE0236
:101AB000ED0130E020E01097A1F420813181820F08
:101AC000931F2091CB023091CC022817390709F0DF
:101AD00061C0F093CC02E093CB02DF91CF910895E7
:101AE000EA01CE17DF07E8F54A815B819E014115C7
:101AF0005105B1F7E901FB83EA8349915991C40F7C
:101B0000D51FEC17FD0761F4808191810296840F47
:101B1000951FE90199838883828193819B838A83BE
:101B2000F0E0E0E012968D919C9113970097B9F543
:101B30002D913C911197CD010296820F931F209118
:101B4000CB023091CC022817390739F6309751F57E
:101B50001092CE021092CD02B093CC02A093CB0291
:101B6000BCCFD383C28340815181840F951FC81796
:101B7000D90761F44E5F5F4F88819981480F591FE3
:101B8000518340838A819B81938382832115310510
:101B900009F0B0CFF093CE02E093CD029ECFFD01CD
:101BA000DC01C0CF13821282D7CFB0E0A0E0EBED12
:101BB000FDE00C94750C8C01009751F4CB010E9450
:101BC000B00C8C01C801CDB7DEB7E0E10C94910CEC
:101BD000FC01E60FF71F9C0122503109E217F307C1
:101BE00008F49DC0D901CD91DC911197C617D70794
:101BF00098F0C530D10530F3CE01049786179707CA
:101C000008F3C61BD70B2297C193D1936D937C9396
:101C1000CF010E944C0DD6CF5B01AC1ABD0A4C011E
:101C20008C0E9D1EA091CD02B091CE02512C412C64
:101C3000F12CE12C109731F58091CB029091CC02E0
:101C40008815990509F05CC04616570608F058C07B
:101C50008091000190910101009741F48DB79EB7EA
:101C60004091040150910501841B950BE817F90779
:101C700008F055C0F093CC02E093CB02F9017183D8
:101C80006083A0CF8D919C91119712966C901297C2
:101C900013967C901397A815B90559F56C0142E08D
:101CA000C40ED11CCA14DB0420F1AC014A195B0933
:101CB000DA011296159780F0628273825183408315
:101CC000D9016D937C93E114F10471F0D70113965F
:101CD000FC93EE93129776CF22968C0F9D1FF901FD
:101CE00091838083F301EFCFF093CE02E093CD0296
:101CF00069CF4816590608F42C017D01D3019ACF0B
:101D0000CB010E94B00C7C01009749F0AE01B801F4
:101D10000E94920EC8010E944C0D870153CF10E023
:101D200000E050CFFB01DC0102C001900D92415058
:101D30005040D8F70895FB01DC018D910190801986
:101D40000110D9F3990B0895FB01DC0101900D926C
:101D50000020E1F7089510E0C2E6D0E004C0FE01E3
:101D60000E94AA0C2196C336D107C9F7F894FFCF79
:101D70000000CF02800000000000E5014501720173
:101D80003202A30181019501000000006B024501B0
:101D90003E036A02C702DD0252024152443100256D
:101DA0002552455155455354002525002C003B0034
:041DB0000D0A000018
:107800000C94343C0C94513C0C94513C0C94513CE1
:107810000C94513C0C94513C0C94513C0C94513CB4
:107820000C94513C0C94513C0C94513C0C94513CA4
:107830000C94513C0C94513C0C94513C0C94513C94
:107840000C94513C0C94513C0C94513C0C94513C84
:107850000C94513C0C94513C0C94513C0C94513C74
:107860000C94513C0C94513C11241FBECFEFD8E036
:10787000DEBFCDBF11E0A0E0B1E0ECE9FFE702C060
:1078800005900D92A230B107D9F712E0A2E0B1E065
:1078900001C01D92AD30B107E1F70E942D3D0C945F
:1078A000CC3F0C94003C982F959595959595959582
:1078B000905D8F708A307CF0282F295A8091C0000B
:1078C00085FFFCCF9093C6008091C00085FFFCCF60
:1078D0002093C6000895282F205DF0CF982F809127
:1078E000C00085FFFCCF9093C6000895EF92FF92F1
:1078F0000F931F93EE24FF2487018091C00087FD22
:1079000017C00894E11CF11C011D111D81E4E8164B
:1079100082E4F8068FE0080780E0180770F3E09132
:107920000401F091050109958091C00087FFE9CF1E
:107930008091C6001F910F91FF90EF9008950E94D3
:10794000763C982F8091C00085FFFCCF9093C600B5
:1079500091362CF490330CF09053892F089597555D
:10796000892F08951F930E949F3C182F0E949F3CCF
:107970001295107F810F1F9108951F93182F882350
:1079800021F00E94763C1150E1F71F9108951F935A
:10799000182F0E94763C803249F0809103018F5F5E
:1079A000809303018530C1F01F9108958091C0003C
:1079B00085FFFCCF84E18093C6008091C00085FFE5
:1079C000FCCF1093C6008091C00085FFFCCF80E102
:1079D0008093C6001F910895E0910401F091050184
:1079E00009951F9108950E94763C803241F0809164
:1079F00003018F5F80930301853081F008958091AA
:107A0000C00085FFFCCF84E18093C6008091C00058
:107A100085FFFCCF80E18093C6000895E0910401CA
:107A2000F09105010995089540E951E08823A1F0FE
:107A30002D9A28EE33E0FA013197F1F721503040CA
:107A4000D1F72D9828EE33E0FA013197F1F7215064
:107A50003040D1F7815061F708953F924F925F9285
:107A60006F927F928F929F92AF92BF92CF92DF924E
:107A7000EF92FF920F931F93CF93DF93000080E16B
:107A80008093C4001092C50088E18093C10086E015
:107A90008093C2005098589A259A81E00E94143D24
:107AA00024E1F22E9EE1E92E85E9D82E0FE0C02ECA
:107AB00010E1B12EAA24A394B1E49B2EA6E58A2E50
:107AC000F2E57F2EE0E26E2E79E4572E63E5462E36
:107AD00050E5352E0E94763C8033B1F18133B9F107
:107AE000803409F46FC0813409F476C0823409F41B
:107AF00085C0853409F488C0803531F1823521F1A3
:107B0000813511F1853509F485C0863509F48DC0BC
:107B1000843609F496C0843709F403C1853709F423
:107B200072C1863709F466C0809103018F5F80932C
:107B30000301853079F6E0910401F0910501099582
:107B40000E94763C803351F60E94F33CC3CF0E94E2
:107B5000763C803249F78091C00085FFFCCFF092DF
:107B6000C6008091C00085FFFCCF9092C600809136
:107B7000C00085FFFCCF8092C6008091C00085FFC9
:107B8000FCCF7092C6008091C00085FFFCCF609250
:107B9000C6008091C00085FFFCCF5092C600809146
:107BA000C00085FFFCCF4092C6008091C00085FFD9
:107BB000FCCF3092C6008091C00085FFFCCFB09210
:107BC000C60088CF0E94763C863808F4BDCF0E945C
:107BD000763C0E94F33C7ECF0E94763C803809F4CC
:107BE0009CC0813809F40BC1823809F43CC1883942
:107BF00009F48FC080E00E94C73C6CCF84E10E94F2
:107C0000BD3C0E94F33C66CF85E00E94BD3C0E94D3
:107C1000F33C60CF0E94763C809306010E94763C44
:107C2000809307010E94F33C55CF0E94763C80333D
:107C300009F41DC183E00E94BD3C80E00E94C73C66
:107C400049CF0E94763C809309020E94763C809343
:107C5000080280910C028E7F80930C020E94763C79
:107C6000853409F415C18091080290910902892B8D
:107C700089F000E010E00E94763CF801E85FFE4FDA
:107C800080830F5F1F4F80910802909109020817AF
:107C9000190788F30E94763C803209F045CF809125
:107CA0000C0280FF01C16091060170910701660F0F
:107CB000771F7093070160930601A0910802B091AD
:107CC00009021097C9F0E8E0F1E09B01AD014E0F09
:107CD0005F1FF999FECF32BD21BD819180BDFA9A17
:107CE000F99A2F5F3F4FE417F50799F76A0F7B1F4B
:107CF00070930701609306018091C00085FFFCCF5F
:107D0000F092C6008091C00085FFFCCFB092C60003
:107D1000E1CE83E00E94C73CDDCE82E00E94C73CFA
:107D2000D9CE0E94763C809309020E94763C8093D3
:107D300008028091060190910701880F991F909386
:107D40000701809306010E94763C853409F4A6C0A1
:107D500080910C028E7F80930C020E94763C8032D0
:107D600009F0B8CE8091C00085FFFCCFF092C6002C
:107D7000609108027091090261157105B9F140E046
:107D800050E080910C02A82FA170B82FB27011C0E2
:107D9000BB2309F45CC0E0910601F0910701319624
:107DA000F0930701E09306014F5F5F4F46175707B7
:107DB000E8F4AA2369F3F999FECF209106013091E6
:107DC000070132BD21BDF89A90B58091C00085FFB2
:107DD000FCCF9093C6002F5F3F4F30930701209355
:107DE00006014F5F5F4F4617570718F38091C00099
:107DF00085FDE5CE8091C00085FFF8CFE0CE81E023
:107E00000E94C73C67CE0E94763C803209F08CCE3F
:107E10008091C00085FFFCCFF092C6008091C00029
:107E200085FFFCCFE092C6008091C00085FFFCCFAB
:107E3000D092C6008091C00085FFFCCFC092C600E2
:107E40008091C00085FFFCCFB092C60043CEE09188
:107E50000601F091070194918091C00085FFFCCF4D
:107E60009093C6009CCF80E10E94C73C33CE0E9415
:107E7000763C0E94763C182F0E94763C112309F430
:107E800083C0113009F484C08FE00E94C73C22CE29
:107E900080910C02816080930C02E5CE80910C02EF
:107EA000816080930C0259CF809107018823880F4D
:107EB000880B8A2180930B02809106019091070123
:107EC000880F991F90930701809306018091080203
:107ED00080FF09C080910802909109020196909359
:107EE000090280930802F894F999FECF1127E091D6
:107EF0000601F0910701C8E0D1E08091080290915D
:107F00000902103091F40091570001700130D9F34B
:107F100003E000935700E89500915700017001308D
:107F2000D9F301E100935700E89509901990009169
:107F3000570001700130D9F301E000935700E89534
:107F40001395103498F011270091570001700130FB
:107F5000D9F305E000935700E895009157000170B0
:107F60000130D9F301E100935700E895329602976A
:107F700009F0C7CF103011F00296E5CF112480919F
:107F8000C00085FFB9CEBCCE8EE10E94C73CA2CD19
:0E7F900085E90E94C73C9ECDF894FFCF80008B
:00000001FF
